{
  "address": "0xa7a48f7d501e66Aa541bdfe7456652bFb9c460c4",
  "abi": [
    {
      "inputs": [
        {
          "internalType": "address",
          "name": "_snarkVerifier",
          "type": "address"
        }
      ],
      "stateMutability": "nonpayable",
      "type": "constructor"
    },
    {
      "inputs": [],
      "name": "InvalidProofEncoding",
      "type": "error"
    },
    {
      "inputs": [],
      "name": "WrongPublicInputCount",
      "type": "error"
    },
    {
      "inputs": [],
      "name": "snarkVerifier",
      "outputs": [
        {
          "internalType": "contract ISnarkJSVerifier",
          "name": "",
          "type": "address"
        }
      ],
      "stateMutability": "view",
      "type": "function"
    },
    {
      "inputs": [
        {
          "internalType": "bytes",
          "name": "proofData",
          "type": "bytes"
        },
        {
          "internalType": "uint256[]",
          "name": "publicInputs",
          "type": "uint256[]"
        }
      ],
      "name": "verifyProof",
      "outputs": [
        {
          "internalType": "bool",
          "name": "valid",
          "type": "bool"
        }
      ],
      "stateMutability": "view",
      "type": "function"
    }
  ],
  "transactionHash": "0xf222e69b78524b2ea98c873772d7f661db77775c6f12a2ce81034b506bc2a0f3",
  "args": [
    "0x9Ccaa9da1cF937bb20Ce715ACc833AcD707CC2A0"
  ],
  "numDeployments": 1,
  "solcInputHash": "20e102a25eea8e50345bf03de1a67e09",
  "bytecode": "0x60a060405234801561001057600080fd5b5060405161065838038061065883398101604081905261002f91610089565b6001600160a01b0381166100785760405162461bcd60e51b815260206004820152600c60248201526b7a65726f206164647265737360a01b604482015260640160405180910390fd5b6001600160a01b03166080526100b9565b60006020828403121561009b57600080fd5b81516001600160a01b03811681146100b257600080fd5b9392505050565b60805161057e6100da6000396000818160680152610195015261057e6000f3fe608060405234801561001057600080fd5b50600436106100365760003560e01c80631e8e1e131461003b5780637a2a660b14610063575b600080fd5b61004e610049366004610269565b6100a2565b60405190151581526020015b60405180910390f35b61008a7f000000000000000000000000000000000000000000000000000000000000000081565b6040516001600160a01b03909116815260200161005a565b6000600282146100c557604051632bf70f1d60e01b815260040160405180910390fd5b6100cd61021e565b6100d561023c565b6100dd61021e565b61010087146100ff5760405163236bd13760e01b815260040160405180910390fd5b61010b878901896103cd565b9194509250905061011a61021e565b8686600081811061012d5761012d61045b565b90506020020135816000600281106101475761014761045b565b60200201528686600181811061015f5761015f61045b565b90506020020135816001600281106101795761017961045b565b6020020152604051637ae4eb4f60e11b81526001600160a01b037f0000000000000000000000000000000000000000000000000000000000000000169063f5c9d69e906101d090879087908790879060040161049a565b602060405180830381865afa1580156101ed573d6000803e3d6000fd5b505050506040513d601f19601f82011682018060405250810190610211919061051f565b9998505050505050505050565b60405180604001604052806002906020820280368337509192915050565b60405180604001604052806002905b61025361021e565b81526020019060019003908161024b5790505090565b6000806000806040858703121561027f57600080fd5b843567ffffffffffffffff81111561029657600080fd5b8501601f810187136102a757600080fd5b803567ffffffffffffffff8111156102be57600080fd5b8760208284010111156102d057600080fd5b60209182019550935085013567ffffffffffffffff8111156102f157600080fd5b8501601f8101871361030257600080fd5b803567ffffffffffffffff81111561031957600080fd5b8760208260051b840101111561032e57600080fd5b949793965060200194505050565b604051601f8201601f1916810167ffffffffffffffff8111828210171561037357634e487b7160e01b600052604160045260246000fd5b604052919050565b600082601f83011261038c57600080fd5b610396604061033c565b8060408401858111156103a857600080fd5b845b818110156103c25780358452602093840193016103aa565b509095945050505050565b600080600061010084860312156103e357600080fd5b6103ed858561037b565b925084605f8501126103fe57600080fd5b60406104098161033c565b8060c087018881111561041b57600080fd5b8388015b81811015610440576104318a8261037b565b8452602090930192840161041f565b5081955061044e898261037b565b9450505050509250925092565b634e487b7160e01b600052603260045260246000fd5b8060005b6002811015610494578151845260209384019390910190600101610475565b50505050565b61014081016104a98287610471565b604082018560005b60028110156104f85781518360005b60028110156104df5782518252602092830192909101906001016104c0565b50505060409290920191602091909101906001016104b1565b50505061050860c0830185610471565b610516610100830184610471565b95945050505050565b60006020828403121561053157600080fd5b8151801515811461054157600080fd5b939250505056fea26469706673582212205c94b6ae773ae4e0217c33ca8b95314d358ff2ff99b9356e0601651bfcd1e13864736f6c634300081e0033",
  "devdoc": {
    "kind": "dev",
    "methods": {
      "verifyProof(bytes,uint256[])": {
        "params": {
          "publicInputs": "For CommitmentProof: [0] fileHash (BN254), [1] commitment (BN254)."
        }
      }
    },
    "version": 1
  },
  "userdoc": {
    "kind": "user",
    "methods": {},
    "version": 1
  },
  "storageLayout": {
    "storage": [],
    "types": null
  }
}